:1000000000000320D501000051020000075D01003F
:1000100055020000570200005902000000000000D5
:1000200000000000000000000000000011040000BB
:100030005D0200000000000041040000BDF300006C
:10004000575A01005F5A0100675A01006F5A0100B8
:10005000775A01007F5A0100875A01008F5A010028
:10006000975A01009F5A0100A75A0100AF5A010098
:10007000B75A0100BF5A0100C75A0100CF5A010008
:10008000D75A0100DF5A0100E75A0100EF5A010078
:10009000F75A0100FF5A0100075B01000F5B0100E6
:1000A000175B01001F5B0100275B01002F5B010054
:1000B000375B01003F5B0100475B01004F5B0100C4
:1000C000575B01005F5B0100675B01006F5B010034
:1000D000775B01007F5B0100875B01008F5B0100A4
:1000E000975B01009F5B0100A75B0100AF5B010014
:1000F000B75B0100BF5B0100C75B0100CF5B010084
:10010000D75B0100DF5B0100E75B0100EF5B0100F3
:10011000F75B0100FF5B0100075C01000F5C010061
:10012000175C01001F5C0100275C01002F5C0100CF
:10013000375C01003F5C0100475C01004F5C01003F
:10014000575C01005F5C0100675C01006F5C0100AF
:10015000775C01007F5C0100875C01008F5C01001F
:10016000975C01009F5C0100A75C0100AF5C01008F
:10017000B75C0100BF5C0100C75C0100CF5C0100FF
:10018000D75C0100DF5C0100E75C0100EF5C01006F
:10019000F75C0100FF5C0100F8D6010000000020C0
:1001A00080000000F8D601000000FF1F00000000E2
:1001B000F8D60100000000140000000080000020BC
:1001C000F8DF00000000FF1F000000000000001426
:1001D0000000000072B613F0ADFB0E4B07E003F118
:1001E0000C049A685968186800F01AF823460A4AFD
:1001F0009342F4D306E01C46596854F8080B00F00B
:100200001EF82346054A9342F5D362B618F01FFE46
:10021000FEE700BF98010000BC010000D40100000F
:10022000002393420AD210B450F8044B41F8044B17
:1002300004339342F8D35DF8044B704770470023B2
:1002400003E0002240F8042B04338B42F9D37047BB
:10025000FEE7FEE7FEE7FEE7FEE7FEE7FEE7FEE776
:10026000FEE7FEE7FFFFFFFFFFFFFFFFFFFFFFFFD0
:10027000FFFFFFFFFFFFFFFFFFFFFFFFFFFFFFFF8E
:10028000FFFFFFFFFFFFFFFFFFFFFFFFFFFFFFFF7E
:10029000FFFFFFFFFFFFFFFFFFFFFFFFFFFFFFFF6E
:1002A000FFFFFFFFFFFFFFFFFFFFFFFFFFFFFFFF5E
:1002B000FFFFFFFFFFFFFFFFFFFFFFFFFFFFFFFF4E
:1002C000FFFFFFFFFFFFFFFFFFFFFFFFFFFFFFFF3E
:1002D000FFFFFFFFFFFFFFFFFFFFFFFFFFFFFFFF2E
:1002E000FFFFFFFFFFFFFFFFFFFFFFFFFFFFFFFF1E
:1002F000FFFFFFFFFFFFFFFFFFFFFFFFFFFFFFFF0E
:10030000FFFFFFFFFFFFFFFFFFFFFFFFFFFFFFFFFD
:10031000FFFFFFFFFFFFFFFFFFFFFFFFFFFFFFFFED
:10032000FFFFFFFFFFFFFFFFFFFFFFFFFFFFFFFFDD
:10033000FFFFFFFFFFFFFFFFFFFFFFFFFFFFFFFFCD
:10034000FFFFFFFFFFFFFFFFFFFFFFFFFFFFFFFFBD
:10035000FFFFFFFFFFFFFFFFFFFFFFFFFFFFFFFFAD
:10036000FFFFFFFFFFFFFFFFFFFFFFFFFFFFFFFF9D
:10037000FFFFFFFFFFFFFFFFFFFFFFFFFFFFFFFF8D
:10038000FFFFFFFFFFFFFFFFFFFFFFFFFFFFFFFF7D
:10039000FFFFFFFFFFFFFFFFFFFFFFFFFFFFFFFF6D
:1003A000FFFFFFFFFFFFFFFFFFFFFFFFFFFFFFFF5D
:1003B000FFFFFFFFFFFFFFFFFFFFFFFFFFFFFFFF4D
:1003C000FFFFFFFFFFFFFFFFFFFFFFFFFFFFFFFF3D
:1003D000FFFFFFFFFFFFFFFFFFFFFFFFFFFFFFFF2D
:1003E000FFFFFFFFFFFFFFFFFFFFFFFFFFFFFFFF1D
:1003F000FFFFFFFFFFFFFFFFFFFFFFFFFFFFFFFF0D
:10040000FFFFFFFFFFFFFFFFFFFFFFFFFEFFFFFFFD
:10041000074B19680868B0E8F04F80F30988BFF30C
:100420006F8F4FF0000080F311887047AFF30080AA
:1004300020DD002000BF00BFFFFFFFFFFFFFFFFF29
:10044000EFF30980BFF36F8F154B1A681EF0100F82
:1004500008BF20ED108A20E9F04F10602DE9090057
:100460004FF0200080F31188BFF34F8FBFF36F8FE1
:100470000FF078FF4FF0000080F3118809BC196875
:100480000868B0E8F04F1EF0100F08BFB0EC108AFB
:1004900080F30988BFF36F8F704700BFAFF3008010
:1004A00020DD002000BF00BF80B582B000AF7860C3
:1004B0007968024814F085FC00BEFDE7A8940100AD
:1004C00080B584B000AF786039607B68002BFCD0C9
:1004D0003B68002B01D1002313E00C4B1B68002B61
:1004E00001D100230DE03A687968094818F010FC42
:1004F0000346FB81FB89002B01D13B6801E04FF0F3
:10050000FF3318461037BD4680BD00BF204E002087
:10051000184E002080B58EB000AFB9607B600346F6
:10052000FB731346BB730023FB867B687B61BB6850
:10053000BB6100233B7700237B770123BB7701233B
:10054000FB77002387F82030002387F82130FB7BDE
:1005500087F82230BB7B87F82C3048F64173FB8547
:10056000BB7B012B03D107F114033B6317E0BB7B7B
:10057000022B03D143F22153FB8610E0BB7B032BFC
:1005800003D143F22153FB8609E0BB7B042B03D14B
:1005900043F22153FB8602E043F22153FB86FB8E9C
:1005A00043F22152934230D020220021194818F002
:1005B00057FC184B184A1A60164B1B6807F12402A7
:1005C0001146184618F01CFB0346FB86FB8E002BD9
:1005D000FCD1124B1B780F4B1B681149184618F0C1
:1005E0003FFB0346FB86FB8E002BFCD1094B1B68AF
:1005F0000C49184618F05CFB0346FB86FB8E002B6B
:10060000FCD1044B1B68084A1360FB8E1846383730
:10061000BD4680BD004E0020044E002066E0002054
:10062000184E00201C4E0020204E002080B5A4B0A3
:1006300000AF786039600023C7F888300023C7F81E
:100640008C300023BB6007F10C037C22002118468C
:1006500018F006FC0E4B1B68002B12D007F10802A5
:100660000C4B3968786814F0AEFFC7F88800D7F8EB
:10067000882007F1080311461846FFF721FFC7F845
:100680008C00D7F88C3018469037BD4680BD00BF2F
:10069000204E00205D4D010080B487B000AF78602F
:1006A0007B681B687B6100233B610023FB734CE08C
:1006B0007B6901337B617B691B78203B102B3ED823
:1006C00001A252F823F000BF210700003F070000FD
:1006D0003F070000350700003F0700003F0700000C
:1006E0003F0700003F0700003F0700003F070000F2
:1006F0003F070000170700003F0700000D0700003C
:100700003F0700003F0700002B0700003B6943F054
:1007100001033B6119E03B6943F002033B6114E0D4
:100720003B6943F004033B610FE03B6943F008037E
:100730003B610AE03B6943F010033B6105E07B69E4
:10074000013B7B610123FB7300BFFB7B83F0010353
:10075000DBB2002BACD17B687A691A603B69184622
:100760001C37BD465DF8047B704700BF80B58CB078
:1007700004AF7860454A07F1080307CA83E8070019
:10078000002011F001F80346414A5360414BFB61E0
:100790006FF07F43BB61404B7B61002100200DF077
:1007A00087FE07F1140007F1180207F11C013B4B0B
:1007B00002933B4B019307F108030093034639482A
:1007C0000DF058FD0022384936480DF08BFD00220F
:1007D000364934480DF086FD354814F0F2FA3548B4
:1007E00014F0EFFA344814F0ECFA07F11C031B780C
:1007F000194607F11C0301331B781A4607F11C0345
:1008000002331B78184607F11C0303331B7800934F
:1008100003462A4814F0D5FA07F118031B78194645
:1008200007F1180301331B781A4607F11803023346
:100830001B78184607F1180303331B78009303460F
:100840001F4814F0BEFA07F114031B78194607F18C
:10085000140301331B781A4607F1140302331B7883
:10086000184607F1140303331B7800930346154819
:1008700014F0A7FA104814F0A4FA0EF019FC0020A6
:100880000FF026FB00BF2037BD4680BDA8950100B4
:1008900000000020C0A80066C0A800646DE400004D
:1008A0009DED0000244E0020AD550000CD55000008
:1008B000BC940100F4940100089501003C950100EE
:1008C000609501008495010080B584B002AF124BA1
:1008D0007B6018F0B6FA18F077FA18F064FA7B68C3
:1008E0001B6823F001027B681A60032300934FF416
:1008F0008063002209490A480EF0CEFA0346002B15
:1009000002D108480EF078FA0FF076FB0023184663
:100910000837BD4680BD00BF00D000406D07000015
:10092000B4950100BC95010080B586B000AF786039
:1009300039604FF47A737B6100233B610023FB60D5
:100940007B685B68184615F0F4F93B681A687B68A9
:100950001A607B6858687B68196807F10C030222EB
:1009600015F008FA38613B69002B01D03B6968E05B
:100970007B69013B7B61FB68222B02D07B69002BEA
:10098000E7D17B69002B01D101235AE07B685868CD
:100990007B6819684FF40043002215F0D7F93861DD
:1009A0003B69002B4CD13B689B79002B17D07B68AF
:1009B00058687B68196840F2E113042215F0C6F903
:1009C00038613B69002B3BD17B6858687B681968AC
:1009D0004FF49053002215F0B9F9386130E03B68CC
:1009E0001B79012B02D91948FFF75EFD7B68586817
:1009F0007B68196807F10C03002215F0BBF9386118
:100A00003B69002B01D03B691BE0FB6823F480634A
:100A1000FB607B6858687B681968FB68002215F0EA
:100A200095F938613B69002B01D03B6909E03B68CF
:100A300019793B685B791A46786800F0ABF8386141
:100A40003B6918461837BD4680BD00BFFC950100C4
:100A500080B584B000AF786039603B68002B02D16C
:100A60000F48FFF721FD3B6800221A707B68586829
:100A70007B68196807F10803012215F07BF9F8601B
:100A8000FB68002B07D1BB6803F02003002B02D0CA
:100A90003B6801221A70FB6818461037BD4680BDBE
:100AA0003496010080B584B000AF786039603B684F
:100AB000002B02D11048FFF7F7FC7B6858687B6871
:100AC000196807F10803012215F054F9F860FB6872
:100AD000002B0BD1BB6803F00403002B03D03B6851
:100AE00001221A7002E03B6800221A70FB68184667
:100AF0001037BD4680BD00BF5496010080B588B058
:100B000000AFF860B9607A60BB68002B05D17B68E4
:100B1000002B02D11E48FFF7C7FCFB685868FB6832
:100B2000196807F114031E2215F024F9F861FB6916
:100B3000002B27D1BB68002B10D07B6903F0070383
:100B4000BB61BB69022B02D0BB69062B03D1BB681A
:100B500001221A7002E0BB6800221A707B68002B29
:100B600010D07B6903F00703BB61BB69052B02D082
:100B7000BB69062B03D17B6801221A7002E07B68F7
:100B800000221A70FB6918462037BD4680BD00BFA1
:100B90007496010080B584B000AF78600B46FB709E
:100BA0001346BB70FB78012B02D91D48FFF77CFC74
:100BB0007B6858687B68196807F10803002215F004
:100BC000D9F8F860FB68002B24D1BB6823F480536C
:100BD000BB60FB78012B04D1BB6843F40053BB60BE
:100BE00003E0BB6823F40053BB60BB78012B04D146
:100BF000BB6843F48073BB6003E0BB6823F480737D
:100C0000BB607B6858687B681968BB68002215F078
:100C10009DF8F860FB6818461037BD4680BD00BFE0
:100C2000B496010080B584B000AF786008461146E4
:100C30001A460346FB700B46BB7013467B70FB786D
:100C4000012B02D94848FFF72FFCBB78012B02D9B2
:100C50004648FFF729FC7B78002B46D0FB78002B19
:100C600013D1BB78012B03D14FF4C243BB6002E028
:100C70004FF48243BB607B6858687B681968BB6827
:100C8000002215F063F8034669E0BB78012B02D01F
:100C90003748FFF709FC4FF4C243BB607B685868D4
:100CA0007B681968BB68002215F050F8F860FB6893
:100CB000002B01D0FB6852E07B6858687B6819689C
:100CC00007F108031F2215F055F8F860FB68002BA8
:100CD00044D17B6858687B681968BB6843F004039B
:100CE0001F2215F033F8034639E0FB78002B1CD1A6
:100CF0007B6858687B68196807F10803002215F0C3
:100D000039F8F860FB68002B28D1BB6823F48043D6
:100D1000BB607B6858687B681968BB6843F40073E4
:100D2000002215F013F8034619E07B6858687B68C9
:100D3000196807F108031F2215F01CF8F860FB681A
:100D4000002B0BD17B6858687B681968BB6823F05F
:100D500004031F2214F0FAFF034600E0FB68184664
:100D60001037BD4680BD00BFE49601001497010016
:100D70004497010080B586B000AF78607B687B61E6
:100D80007B691B683B61386911F066F8F860094AB5
:100D9000FB6852F82330184615F026F87B695B682B
:100DA00000221946386911F063FD00BF1837BD46AF
:100DB00080BD00BF5CCC010080B588B000AFF8609A
:100DC000B9607A603B603B68002B02D11648FFF7A0
:100DD0006BFBFB68FB61FB691B68BB6100237B61EC
:100DE0004FF40001B86915F032F802237A68B96847
:100DF000B86917F0DAFDB86915F065F878617B69B4
:100E0000002B01D07B690BE0B86915F007F80246AA
:100E10003B681A604FF40001B86915F018F87B6957
:100E200018462037BD4680BD8897010080B586B042
:100E300000AF786039600E23FB820EF0A1F87B686A
:100E40005B890E2B6ED97B68DB7B002B06D13B6860
:100E500093F830300133DAB27B68DA737B685B6811
:100E60003B613B691A7B5B7B1B021343FB813B6944
:100E70001B7803F00103002B23D03B691B78012B67
:100E80000FD13B695B78002B1BD13B699B785E2BB4
:100E900017D17B685B7B43F01003DAB27B685A732F
:100EA0000FE03B6906222849184617F0F3FF034676
:100EB000002B06D17B685B7B43F00803DAB27B68CA
:100EC0005A73FB89082B03D0B3F5C16F14D032E0FD
:100ED0003B6893F82D3003F00803002B24D0FB8AE5
:100EE0001946786804F0EAFD0346002B1ED13968E4
:100EF000786802F089FD13E03B6893F82D3003F029
:100F00000803002B14D0FB8A1946786804F0D6FD3C
:100F10000346002B0ED13968786801F01FFF00BF2F
:100F200000230CE000BF06E000BF04E000BF02E0C9
:100F300000BF00E000BF786804F00AFE00231846F6
:100F40001837BD4680BD00BFB097010080B586B0A0
:100F500000AFF860B9607A603B603B8C184615F0D2
:100F600061F90346FB820E21B86815F00BFC0346BD
:100F7000002B23D10EF004F8BB685B683B613B6932
:100F8000FA8A9A813B6906223968184617F066FF8B
:100F90003B69063306227968184617F05FFFFB6845
:100FA00093F82C30062B02D008480DF025FFFB6883
:100FB0009B69B968F8689847034602E000BF6FF084
:100FC000010318461837BD4680BD00BFC097010019
:100FD00080B500AF1E4B1B78002B30D11D4B1B681A
:100FE000002B02D01C480DF007FF15F014FD03463E
:100FF000184A1360174B1B68002B02D14FF0FF33C8
:1010000024E0144B1B685A7A124B1B6842F02002F2
:10101000D2B25A720F4B1B684422104918460AF08C
:1010200011FF0C4B1B6843220C4918460AF092FF33
:10103000084B1B6800220A4918460AF0F7FF044BC8
:101040001B780133DAB2024B1A700023184680BDB8
:1010500067E00020804E0020F4970100509D0100C1
:101060003924000080B500AF0D4B1B78002B02D156
:101070000C480DF0C1FE0A4B1B78013BDAB2084B5D
:101080001A70074B1B78002B07D1074B1B681846BB
:101090000AF0ECFF044B00221A6000BF80BD00BFC5
:1010A00067E000201C980100804E002080B584B0CD
:1010B00000AF78607B681B6AFB600C21F86814F055
:1010C000B0FF064B054A0549786804F023FA7868B2
:1010D00000F08EFA00BF1037BD4680BD509D010064
:1010E00080B584B000AF786039607B681B6AFB60B4
:1010F0000C4B9B78002B11D0FB6800221A810A4B05
:101100009B68184615F0A3F80246FB689A613B6895
:101110001A69FB68DA61786800F008F800BF1037D8
:10112000BD4680BD784E0020584E0020B0B58AB034
:1011300002AF78607B68002B08D1704813F041FE45
:101140006F4813F03EFE6FF00F03D2E07B681B6A1E
:10115000BB61BB69002B08D16A4813F032FE6848B6
:1011600013F02FFE6FF00503C3E00121B86914F0FE
:1011700058FF07F10C030322B969786801F01AFAE5
:1011800078617B69002B00F085807B695B683B613F
:10119000B8893B6903F1F0010223392200F026FEF1
:1011A0000346BB81B8893B6903F1F0017B689B8CE6
:1011B0001A4600F065FE0346BB81B8893B6903F11E
:1011C000F0010423322200F011FE0346BB81BC89EA
:1011D0003B6903F1F005BB69DB69184615F037F888
:1011E00003461A462946204600F074FE0346BB819A
:1011F000B8893B6903F1F0010423362200F0F6FDC3
:101200000346BB81BC893B6903F1F005BB699B695F
:10121000184615F01CF803461A462946204600F0E9
:1012200059FE0346BB81B8893B6903F1F0010323F2
:10123000372200F0DBFD0346BB810023FB770EE085
:10124000B8893B6903F1F001FB7F2F4AD35C1A4652
:1012500000F0F8FD0346BB81FB7F0133FB77FB7F8A
:10126000022BEDD9B8893B69F0337A69194614F03D
:10127000F2FE264B1868264B01937B6800934323AC
:10128000244A79690AF0E8FC0346BB77786904F0E0
:101290005FFC01E0FF23BB77BB699B79FF2B05D087
:1012A000BB699B790133DAB2BB699A71BB699B79DF
:1012B000052B0DD8BB699B791A46012393409BB23D
:1012C0001A465201D21A92001344DB009BB201E08D
:1012D0004EF66023FB81FB8903F2F3130E4A82FB77
:1012E00003125211DB17D31A9AB2BB691A8197F90C
:1012F0001E3018462037BD46B0BD00BF40980100E3
:10130000389501005C98010018000020804E0020F4
:10131000509D0100549D0100D34D621080B582B0F4
:1013200000AF274B1B687B6042E07B681B6A3B6019
:101330003B68002B39D03B685B79002B35D03B688C
:101340009B8A002B12D03B685B8A01339AB23B68C0
:101350005A823B685A8A3B689B8A9A4206D17868CF
:1013600000F0A4FC786800F0C7F81EE03B681B8A18
:10137000002B0BD03B681B8A5A1E91B23A6811822F
:10138000012B03D1786814F01AFE0EE03B68DB896C
:10139000002B0AD03B68DB895A1E91B23A68D18192
:1013A000012B02D1786814F0DCFD7B681B687B6040
:1013B0007B68002BB9D100BF00BF0837BD4680BD98
:1013C00098D4002080B582B000AF164B1B687B60BC
:1013D00020E07B681B6A3B603B68002B17D03B68B2
:1013E0001B89012B06D93B681B89013B9AB23B68DC
:1013F0001A810CE03B681B89012B08D13B681B89D3
:10140000013B9AB23B681A81786814F071FD7B68E1
:101410001B687B607B68002BDBD100BF00BF0837F7
:10142000BD4680BD98D4002080B584B000AF786000
:1014300039607B681B6AFB60FB6800221A62FB68EC
:1014400000225A622A4BDB78002B03D0294BDA6842
:10145000FB689A62264B1B79002B04D0254B1A6936
:10146000FB68DA6204E0FB689B6A5A08FB68DA6290
:101470001F4B5B79002B04D01E4B5A69FB681A6323
:1014800007E0FB689A6A1346DB009B1ADA08FB68E0
:101490001A633B681A69FB68DA61154B9B79002B6C
:1014A0000FD0144B9B69184614F0D1FE0246FB681E
:1014B0001A62FB68DB7943F00103DAB2FB68DA7188
:1014C00006E0FB68DB7923F00103DAB2FB68DA712E
:1014D000074BDB79002B07D0064BDB69184614F06D
:1014E000B6FE0246FB685A6200BF1037BD4680BD9B
:1014F000784E0020584E002080B584B000AF786050
:101500000DF03EFD7B68002B08D1364813F059FCE6
:10151000354813F056FC6FF00F035FE07B6893F8DB
:101520002D3003F00103002B08D1304813F049FCA3
:101530002D4813F046FC6FF00F034FE07B681B6AE9
:10154000FB607B689B8CB3F5107F02D24FF0FF33BA
:1015500044E0FB68002B0DD1342003F035FDF8602A
:10156000FB68002B02D14FF0FF3337E07B68FA684D
:101570001A6205E0FB681B79002B01D0FFF772FDB2
:1015800034220021F86817F06BFCFFF721FD0346B9
:10159000002B02D04FF0FF3320E0FB6801221A71CC
:1015A0007B6893F82D3003F00403002B05D1022152
:1015B000F86814F036FD002310E0786800F018F8A1
:1015C0000346FB7297F90B30002B05D0786800F0CA
:1015D0006DFB4FF0FF3301E097F90B3018461037E1
:1015E000BD4680BD7898010038950100BC98010087
:1015F00080B58AB002AF78607B681B6ABB6100234C
:10160000FB75BB690022DA610621B86914F009FD97
:1016100007F108030122B969786800F0CBFF38614F
:101620003B69002B4BD03B695B68FB603889FB68EA
:1016300003F1F0010223392200F0D8FB03463B817D
:101640003889FB6803F1F0017B689B8C1A4600F037
:1016500017FC03463B813889FB6803F1F001032343
:10166000372200F0C3FB03463B810023FB770EE0EB
:101670003889FB6803F1F001FB7F294AD35C1A46E5
:1016800000F0E0FB03463B81FB7F0133FB77FB7FF0
:10169000022BEDD93889FB68F0333A69194614F00A
:1016A000DAFC204B1868204B01937B68009343239E
:1016B0001E4A39690AF0D0FA386904F049FABB6960
:1016C0009B79FF2B05D0BB699B790133DAB2BB69EB
:1016D0009A71BB699B79052B0DD8BB699B791A461A
:1016E000012393409BB21A465201D21A920013442E
:1016F000DB009BB201E04EF660237B817B8903F225
:10170000F3130B4A82FB03125211DB17D31A9AB25E
:10171000BB691A8197F9173018462037BD4680BD3E
:1017200018000020804E0020509D0100549D0100B3
:10173000D34D621080B588B000AF78607B68002B15
:1017400006D15E4813F03DFB5D4813F03AFBB1E073
:101750007B681B6AFB61FB69002B06D1594813F0BB
:1017600030FB574813F02DFBA4E0FB6900225A829E
:10177000FB699B6AB3F1FF3F19D0FB699B6A1E337B
:10178000514AA2FB03235B09BB61BB69B3F5803FF0
:1017900002D34FF6FF73BB61BB699AB2FB699A82B1
:1017A000FB699B8A002B02D1FB6901229A82FB69AB
:1017B000DB6AB3F1FF3F1DD0FB69DB6A1E33424A8F
:1017C000A2FB03235B09BB61BB69B3F5803F02D376
:1017D0004FF6FF73BB61BB699AB2FB695A81FB6923
:1017E0005B89002B02D1FB6901225A81FB695A896E
:1017F000FB69DA81FB691B6BB3F1FF3F1DD0FB690D
:101800001B6B1E33304AA2FB03235B09BB61BB6920
:10181000B3F5803F02D34FF6FF73BB61BB699AB249
:10182000FB699A81FB699B89002B02D1FB6901222C
:101830009A81FB699A89FB691A82FB695A89FB695B
:101840009B899A4206D3FB699B89002B02D0FB69D6
:1018500000225A81FB69DB7903F00103002B03D0DE
:10186000FB691B6A3B6114E0FB691C331B78FB7549
:1018700097F91730002B02DBFF233B6109E0FB7D6A
:10188000BF2B03D96FF07F433B6102E04FF6FF733C
:101890003B61FB695B6AFB600A21F86914F0C1FBDC
:1018A000FB6903F11C0107F10C0307F110027868D2
:1018B00003F030FE2037BD4680BD00BFE098010038
:1018C00038950100FC9801008988888880B58AB025
:1018D00002AF78607B681B6ABB610DF051FB05218C
:1018E000B86914F09EFB07F10C030322B96978680C
:1018F00000F060FE78617B69002B4ED07B695B68ED
:101900003B61B8893B6903F1F0010223392200F001
:101910006DFA0346BB81B8893B6903F1F0017B682E
:101920009B8C1A4600F0ACFA0346BB81B8893B6930
:1019300003F1F0010323372200F058FA0346BB817C
:101940000023BB770EE0B8893B6903F1F001BB7F50
:101950002A4AD35C1A4600F075FA0346BB81BB7F66
:101960000133BB77BB7F022BEDD9B8893B69F033DC
:101970007A69194614F06FFB214B1868BB6903F1B3
:1019800018027B680093432379690AF0F7F803464D
:10199000FB77786904F0DCF801E0FF23FB77BB6993
:1019A0009B79FF2B05D0BB699B790133DAB2BB6908
:1019B0009A71BB699B79092B0AD8BB699B799BB249
:1019C0001A465201D21A920013441B019BB201E045
:1019D00044F62063FB81FB8903F2F313094A82FB7F
:1019E00003125211DB17D31A9AB2BB691A8197F905
:1019F0001F3018462037BD4680BD00BF18000020AC
:101A0000804E0020D34D621080B58AB002AF78605E
:101A10007B681B6ABB610421B86914F002FB07F103
:101A20000C030322B969786800F0C4FD78617B6912
:101A3000002B4CD07B695B683B61B8893B6903F143
:101A4000F0010223392200F0D1F90346BB81B889A5
:101A50003B6903F1F0017B689B8C1A4600F010FA99
:101A60000346BB81B8893B6903F1F00103233722A8
:101A700000F0BCF90346BB810023BB770EE0B889B8
:101A80003B6903F1F001BB7F294AD35C1A4600F0A1
:101A9000D9F90346BB81BB7F0133BB77BB7F022BE8
:101AA000EDD9B8893B69F0337A69194614F0D3FA55
:101AB000204B18687B68009343231F4A79690AF01A
:101AC0005DF80346FB77786904F042F801E0FF23F4
:101AD000FB77BB699B79FF2B05D0BB699B790133F1
:101AE000DAB2BB699A71BB699B79092B0AD8BB69C9
:101AF0009B799BB21A465201D21A92001344DB0022
:101B00009BB201E042F21073FB81FB8903F2F313F5
:101B10000A4A82FB03125211DB17D31A9AB2BB692D
:101B20001A8197F91F3018462037BD4680BD00BF87
:101B300018000020804E0020549D0100D34D6210FB
:101B4000B0B58AB002AF78607B681B6ABB610321C5
:101B5000B86914F066FA07F10C030322B9697868D2
:101B600000F028FD78617B69002B66D07B695B689B
:101B70003B61B8893B6903F1F0010223392200F08F
:101B800035F90346BB81B8893B69F0334FF41072D5
:101B9000194600F075F90346BB81B8893B6903F12A
:101BA000F0010423322200F021F90346BB81BC89F5
:101BB0003B6903F1F005BB69DB69184614F047FB8C
:101BC00003461A462946204600F084F90346BB81A5
:101BD000B8893B6903F1F0010323372200F006F9CD
:101BE0000346BB810023BB770EE0B8893B6903F154
:101BF000F001BB7F294AD35C1A4600F023F9034663
:101C0000BB81BB7F0133BB77BB7F022BEDD9B8898A
:101C10003B69F0337A69194614F01DFA204B1868B5
:101C20007B68009343231F4A796909F0A7FF0346A5
:101C3000FB77786903F08CFF01E0FF23FB77BB693A
:101C40009B79FF2B05D0BB699B790133DAB2BB6965
:101C50009A71BB699B79092B0AD8BB699B799BB2A6
:101C60001A465201D21A92001344DB009BB201E0E3
:101C700042F21073FB81FB8903F2F3130A4A82FBE1
:101C800003125211DB17D31A9AB2BB691A8197F962
:101C90001F3018462037BD46B0BD00BF18000020D9
:101CA000804E0020549D0100D34D6210B0B58AB023
:101CB00002AF78607B681B6AFB610DF061F9FB691C
:101CC000002B00F08980FB695B79002B00F0868097
:101CD000FB699B693B61FB6900229A61FB690022F9
:101CE000DA61FB6900221A62FB6900225A62FB6911
:101CF00000221A63FB691A6BFB69DA62FB69DA6A14
:101D0000FB699A62FB6900229A82FB699A8AFB69E5
:101D10005A82FB695A8AFB691A82FB691A8AFB6933
:101D2000DA81786814F0C5F90346002B46D000210B
:101D3000F86914F076F907F10E030722F96978685B
:101D400000F038FCB861BB69002B30D0BB695B6820
:101D50007B61F8897B6903F1F0010423362200F0EE
:101D600045F80346FB81FC897B6903F1F0053B697B
:101D7000184614F06CFA03461A462946204600F02D
:101D8000A9F80346FB81F8897B69F033BA691946E3
:101D900014F061F9134B186807F110027B68009387
:101DA0004323B96909F0EAFEB86903F0D1FE0E4B8E
:101DB0000D4A0D49786803F0ADFB03E00021F86996
:101DC00014F02FF9FB691B79002B08D0FFF74AF9B3
:101DD000FB6900221A7102E000BF00E000BF20375B
:101DE000BD46B0BD804E0020509D010080B582B040
:101DF00000AF396011461A460346FB800B467B71E3
:101E000013463B71FA883B7913440233442B02D9C1
:101E10000B480CF0F1FFFB885A1CFA801A463B680D
:101E200013447A791A70FB885A1CFA801A463B6868
:101E300013443A791A70FB8818460837BD4680BDAE
:101E40001499010080B582B000AF03463960FB8071
:101E500013467B71FB88432B02D908480CF0CCFF5A
:101E6000FB885A1CFA801A463B6813447A791A7028
:101E7000FB8818460837BD4680BD00BF5899010051
:101E800080B582B000AF03463960FB801346BB804B
:101E9000FB880233442B02D90D480CF0ADFFBB8800
:101EA0001B0A9AB2FB88591CF98019463B680B44FF
:101EB000D2B21A70FB885A1CFA801A463B68134447
:101EC000BA88D2B21A70FB8818460837BD4680BD62
:101ED0009099010080B584B000AF0346B9607A6084
:101EE000FB81FB890433442B02D917480CF084FF93
:101EF0007B681A0EFB89591CF9811946BB680B4493
:101F0000D2B21A707B681A0CFB89591CF9811946E8
:101F1000BB680B44D2B21A707B681A0AFB89591C41
:101F2000F9811946BB680B44D2B21A70FB895A1C5E
:101F3000FA811A46BB6813447A68D2B21A70FB89D8
:101F400018461037BD4680BDCC99010080B592B0CF
:101F500000AF7860396000233B630023FB620822F6
:101F60000021B74816F07CFF7B685B892B2B02D8D9
:101F70006FF0010355E27B685B68FB61F023BB8770
:101F80007B681B897B877B687B63BB8F7B830CE0D3
:101F90007B6B5B89BA8FD31ABB877B6B5B897A8F2C
:101FA000D31A7B877B6B1B687B637B6B002B04D016
:101FB0007B6B5B89BA8F9A42EAD27B6B002B02D192
:101FC0006FF001032DE2BB8FA7F846307B8FFB87B4
:101FD0007B6B5B683B64E2E1B7F846303A6C1344D4
:101FE0001B787B76002387F82A304FF0FF337B6223
:101FF000B7F8463002337B847A8CB7F846309A4281
:1020000002D26FF001030CE2B7F8463001337A6B6D
:102010005289934208DAB7F8463001333A6C1344D8
:102020001B7887F82B300BE07B6B1B68002B04D0F0
:102030007B6B1B685B681B7800E0002387F82B3004
:1020400097F82B3087F82A307B7E3B2B00F2DF801D
:1020500001A252F823F000BF4921000059210000DD
:102060000F2200006D2100000F2200000F2200004F
:102070000F2200000F2200000F2200000F2200009C
:102080000F2200000F2200000F2200000F2200008C
:102090000F2200000F2200000F2200000F2200007C
:1020A0000F2200000F2200000F2200000F2200006C
:1020B0000F2200000F2200000F2200000F2200005C
:1020C0000F2200000F2200000F2200000F2200004C
:1020D0000F2200000F2200000F2200000F2200003C
:1020E0000F2200000F2200000F2200000F2200002C
:1020F0000F2200000F2200000F2200000F2200001C
:102100000F2200000F2200000F2200000F2200000B
:102110000F2200000F2200000F2200000F220000FB
:102120000F2200008B2100009F210000BF21000032
:10213000D32100000F2200000F2200000F22000018
:10214000E7210000FB210000002387F82B3097F8DF
:102150002B3087F82A305EE097F82B30042B02D022
:102160006FF005035DE106237B6254E0042387F8EA
:102170002A3097F82B2097F82A309A4202D26FF033
:1021800005034EE107237B6245E097F82B30042BD3
:1021900002D06FF0050344E103237B623BE097F834
:1021A0002B30012B02D06FF005033AE17B8BF02B33
:1021B00002D06FF0050334E100237B622BE097F837
:1021C0002B30012B02D06FF005032AE101237B6243
:1021D00021E097F82B30042B02D06FF0050320E1AB
:1021E00002237B6217E097F82B30042B02D06FF0AC
:1021F000050316E104237B620DE097F82B30042BD6
:1022000002D06FF005030CE105237B6203E000239D
:1022100087F82A3000BF7B7E002B05D1B7F8463007
:102220000133A7F8463093E0B7F8462097F82B30F3
:1022300013444FF6FD72934204DD6FF00103F0E0AA
:10224000784E002097F82B309AB2B7F846301344F6
:102250009BB20233A7F8463097F82A30002B77D08C
:102260000023FB607B6A002B02DB7B6A072B02DD0D
:102270006E480CF0C1FD6E4A7B6A13441B78002B3C
:1022800066D197F82A30042B28BF0423DBB2FB82E7
:102290007B8CFA8A07F10C01786B03F057FE03463A
:1022A0001A46FB8A934202D06FF00103B9E097F817
:1022B0002A30042B2CD997F82A3003F00303DBB221
:1022C000002B02D06FF00503ABE0594A7B6A134440
:1022D00001221A70FB68184613F0B9FF02465549EF
:1022E0007B6A41F8232097F82A30043B87F82A308C
:1022F0007B8C0433BB82BA8A7B8C9A4202D26FF009
:1023000001038EE0BB8A7B847B6A01337B62A9E791
:1023100097F82A30042B06D1FB68184613F097FF74
:102320000346FB600AE097F82A30012B02D06FF0D9
:10233000050376E007F10C031B78FB603C4A7B6ADF
:10234000134401221A70FA683A497B6A41F8232043
:102350007B6B5B89B7F846209A4220D37B6B5B8905
:10236000B7F84620D31AA7F846307B6B5B89FA8F03
:10237000D31AFB87B7F84620FB8F9A420CD27B6BAF
:102380001B687B637B6B002B02D16FF0050348E079
:102390007B6B5B683B6402E06FF0010341E07B6BA9
:1023A000002B0CD0B7F84620FB8F9A4207D2B7F823
:1023B00046303A6C13441B78FF2B7FF40DAE1C4B58
:1023C0001B78002B18D01B4B1B683B61184B00225D
:1023D0001A703B69012B02D101233B630CE03B697E
:1023E000022B02D10123FB6206E03B69032B03D1E0
:1023F0000123FB6201233B633B6B002B06D00023D0
:102400003B636C23BB87EC237B87BCE5FB6A002B1B
:1024100006D00023FB622C23BB876C237B87B2E5AD
:10242000002318464837BD4680BD00BF089A01000A
:10243000784E0020584E002080B58AB000AFF8607A
:10244000B9607A603B60584B5B68FB61FB691B6A53
:10245000BB617B685B687B61BB69002B00F08E8091
:10246000BB691B79002B00F089807B685B892B2B73
:1024700040F286807B691B78022B40F0838000232A
:10248000FB740DE0FB7CFA69134493F82620FB7C77
:1024900079690B441B7F9A4276D1FB7C0133FB7434
:1024A000FB6993F82C30FA7C9A4202D2FB7C052B14
:1024B000E8D97B695B68184613F0C9FE0246BB6920
:1024C0001B689A4262D1B9697868FFF73FFD0346FD
:1024D000002B5DD1354B5B78002B5BD07B685B6854
:1024E0003B62334B5B6887F8273097F82730052B22
:1024F0001FD1BB695B79012B03D0BB695B79032BCF
:1025000007D1396AF869FEF78FFFF869FFF712F90A
:1025100043E0BB695B79042B03D0BB695B79052B76
:102520003BD1396AF869FEF77FFFF869FFF702F9D6
:1025300033E097F82730062B13D1BB695B79032B67
:102540000BD0BB695B79012B07D0BB695B79042B8E
:1025500003D0BB695B79052B03D1F869FEF7A6FDB3
:102560001BE097F82730022B16D1BB695B79062B4D
:1025700012D1396AF869FEF7B3FD0EE000BF0CE036
:1025800000BF0AE000BF08E000BF06E000BF04E0B3
:1025900000BF02E000BF00E000BF786803F0D8FA97
:1025A00000BF2837BD4680BD784F0020784E002000
:1025B000584E002080B588B000AFF860B9603B602D
:1025C0001346FB71FB68002B07D15C4812F0F9FB46
:1025D0005B4812F0F6FB0023ABE0BB68002B07D191
:1025E000584812F0EEFB564812F0EBFB0023A0E037
:1025F0004FF420724FF49A71362003F071F8B861ED
:10260000BB69002B01D1002393E0BB695B89B3F563
:102610009A7F02D24C480CF0EFFBFB79032B03D1DD
:10262000BB685B79032B0CD1BB689B79002B04D171
:10263000464B1B680133454A1360444B1A68BB681C
:102640001A60BB695B687B614FF49A7200217869FC
:1026500016F006FC7B6901221A707B6901225A7010
:10266000FB6893F82C207B699A70BB681B6818463E
:1026700013F0EDFD02467B695A60FB79082B10D000
:10268000FB79042B0DD0FB79072B0AD0FB79032BA8
:102690000CD1BB685B79052B03D0BB685B79042B3D
:1026A00004D1FB6804331A687B69DA600023FB837A
:1026B0000CE0FA8BFB8BF9680A4492F826107A69D1
:1026C00013440A461A77FB8B0133FB83FB8B052BE4
:1026D000EFD97B69002242F0630283F8EC200022EC
:1026E00062F07D0283F8ED20002242F0530283F86D
:1026F000EE20002242F0630283F8EF207B6903F1B1
:10270000F001012335220020FFF770FB03467B8296
:102710007B6903F1F001FA797B8A1846FFF792FB97
:1027200003467B823B68002B02D03B687A8A1A8082
:10273000BB6918462037BD4680BD00BF1C9A01000A
:10274000389501003C9A01005C9A01001C000020B1
:1027500080B582B000AF78602B497A6813465B0081
:102760001344DB000B441B68002B13D026497A6806
:1027700013465B001344DB000B441B68184603F050
:10278000E7F921497A6813465B001344DB000B44E8
:1027900000221A601C497A6813465B001344DB0070
:1027A0000B44143300221A7017497A6813465B00F1
:1027B0001344DB000B44123300221A8012497A685A
:1027C00013465B001344DB000B44083300221A60FD
:1027D0000D497A6813465B001344DB000B44043355
:1027E00000221A6008497A6813465B001344DB0034
:1027F0000B440833054A04331068186092889A80A5
:1028000000BF0837BD4680BD844E0020B897010048
:1028100080B582B000AF00237B6096E04F497A68B4
:1028200013465B001344DB000B4414331B78FB702E
:10283000FB78002B00F0868048497A6813465B00DD
:102840001344DB000B4412331B88013398B2434915
:102850007A6813465B001344DB000B4412330246D4
:102860001A803E497A6813465B001344DB000B4430
:1028700012331B88B3F5967F15D238497A68134610
:102880005B001344DB000B4414331B78012B0ED187
:1028900032497A6813465B001344DB000B44123361
:1028A0001B88042B03D97868FFF752FF4AE02B49B5
:1028B0007A6813465B001344DB000B4414331B7827
:1028C000032B0AD125497A6813465B001344DB00C9
:1028D0000B44143304221A7034E020497A681346FA
:1028E0005B001344DB000B4414331B78042B0AD128
:1028F0001A497A6813465B001344DB000B44143317
:1029000002221A701EE015497A6813465B001344D0
:10291000DB000B4414331B78012B13D10F497A6869
:1029200013465B001344DB000B44083318687A68D5
:1029300013465B001344DB00084A13440433194672
:1029400000F01CFE7B6801337B607B68092B7FF7FE
:1029500065AF00BF00BF0837BD4680BD844E002074
:1029600080B58AB000AFF8600B467A60FB720A232C
:102970003B840A237B840A23BB840023FB840A2331
:10298000FB830023BB8300237B8300233B83002343
:10299000FB84AAE0B7F926209C4913465B00134448
:1029A000DB000B4414331B78FB75B7F924300A2B7A
:1029B00005D1FB7D002B02D1FB8CBB8491E0FB7D1C
:1029C000002B00F08E80FB7D012B05D0FB7D012BC1
:1029D00002D88F480CF010FAFB68002B20D0FB685F
:1029E0001968B7F92620894813465B001344DB00B9
:1029F000034404331B68994212D17B68002B0CD02E
:102A0000B7F92620814913465B001344DB000B44D1
:102A100008331B687A689A4202D1B7F92630F0E091
:102A2000FB7D012B40D1B7F92620784913465B0086
:102A30001344DB000B441B68002B1AD0B7F9262087
:102A4000724913465B001344DB000B4412331B88AE
:102A5000BA8B9A4245D8FB8CFB83B7F926206B4989
:102A600013465B001344DB000B4412331B88BB830B
:102A700037E0B7F92620654913465B001344DB00B5
:102A80000B4412331B887A8B9A422AD8FB8C3B84E6
:102A9000B7F926205D4913465B001344DB000B4465
:102AA00012331B887B831CE0FB7D012B19D9B7F9FE
:102AB0002620564913465B001344DB000B441233B7
:102AC0001B883A8B9A420CD8FB8C7B84B7F9262062
:102AD0004E4913465B001344DB000B4412331B8842
:102AE0003B83FB8C01339BB2FB84B7F92630092B67
:102AF0007FF750AFFB7A03F00203002B08D1B7F940
:102B000024300A2B07D1FB7A03F00103002B02D1FA
:102B10004FF0FF3375E0B7F92430092B02DCBB8C92
:102B2000FB8431E0B7F92230092B10DC7B8CFB846D
:102B3000B7F92620354913465B001344DB000B44EC
:102B40001B68002B14D033480CF056F910E0B7F98D
:102B50002030092B02DC3B8CFB8409E0B7F91E30E6
:102B6000092B02DCFB8BFB8402E04FF0FF3348E0D3
:102B7000B7F92630092B02DD27480CF03DF9B7F9EB
:102B800026301846FFF7E4FDB7F92630092B02DDA1
:102B900021480CF031F9B7F926201C4913465B0097
:102BA0001344DB000B4414331B78002B02D01B486A
:102BB0000CF022F9FB68002B0BD0B7F92620FB683C
:102BC0001968124813465B001344DB0003440433C6
:102BD0001960B7F926200D4913465B001344DB004A
:102BE0000B44123300221A80B7F9262007491346F6
:102BF0005B001344DB000B4408337A681A60B7F9B2
:102C0000263018462837BD4680BD00BF844E0020C0
:102C10009C9A0100DC9A0100F49A0100089B0100D3
:102C200080B588B002AFF860B9607A60FB70FB686D
:102C300093F82C30062B02D046480CF0DDF8BB6828
:102C4000002B12D0BB681B68002B0ED0BB681B6822
:102C5000F968184613F09DFA0346002B05D1BB68AE
:102C60001B6803F0F003E02B02D16FF00F036CE060
:102C7000FB78FA681946B868FFF772FE0346FB82D4
:102C8000B7F91630002B02DAFB8A5BB25DE0B7F9C8
:102C90001620314913465B001344DB000B44143308
:102CA00002221A70B7F916202B4913465B00134411
:102CB000DB000B440833FA681A60B7F91620134694
:102CC0005B001344DB000833234A13440433062219
:102CD0007968184616F0C2F8B7F916201E4913464F
:102CE0005B001344DB000B44123300221A80B7F957
:102CF0001620194913465B001344DB000B441B6884
:102D0000002B21D0B7F91620134913465B0013445A
:102D1000DB000B441B683B61B7F916200E491346D4
:102D20005B001344DB000B4400221A60FB6803F1D4
:102D300026024FF4006300937B683969F868FEF758
:102D400005F9386902F004FF002318461837BD461C
:102D500080BD00BF349B0100844E0020B0B58AB016
:102D600004AF786039600CF00BF93B68002B06D19A
:102D7000494812F026F8494812F023F888E07B68A9
:102D80005B683B613B691B889BB2B3F5807F0CD1CC
:102D90003B691B79062B08D13B695B79042B04D175
:102DA0003B695B889BB2082B03D0786802F0D0FEA9
:102DB0006EE03B6903F10E0107F10C030422184693
:102DC00016F04CF83B6903F1180107F108030422DF
:102DD000184616F043F83B6804331B68002B04D1F7
:102DE0000023FB750023BB7513E0BA683B6804330E
:102DF0001B689A420CBF01230023DBB2FB75FA6803
:102E00003B6804331B689A420CBF01230023DBB2EA
:102E1000BB753B6903F10802FB7D002B01D0012348
:102E200000E0022307F10C013868FFF7F9FE3B6967
:102E3000DB889BB2B3F5807F03D0B3F5007F21D050
:102E400023E0FB7D002B1FD0BB7D002B1CD13B68FA
:102E500003F126003B6903F108043B6803F12605F2
:102E60003B6804333A6908320221039107F10C01EF
:102E70000291019200932B4622460146386800F0E9
:102E8000DBFA01E000BF00E000BF786802F060FEFE
:102E90001837BD46B0BD00BF7898010038950100D5
:102EA00080B586B002AFF860B9601346FB71FA795D
:102EB000424913465B001344DB000B4414331B7878
:102EC000012B02D83E480BF097FFFA793B49134695
:102ED0005B001344DB000B4414331B78022B53D1EB
:102EE000FA79364913465B001344DB000B44123376
:102EF0001B88B3F58E7F19D9FA7913465B0013440A
:102F0000DB002E4A134404331946F86800F036FB00
:102F10000346002B38D1FA79284913465B00134445
:102F2000DB000B44143303221A702DE0FA79234995
:102F300013465B001344DB000B4412331B88B3F5CC
:102F4000877F21D3FA7913465B001344DB001B4AC9
:102F50001344191DFA7913465B001344DB00083350
:102F6000164A134404331A46F86800F0E5FA03469B
:102F7000002B09D1FA79114913465B001344DB0099
:102F80000B44143303221A70FB6803F12601FA790B
:102F900013465B001344DB000833084A1344043330
:102FA0004FF4006200920A46B968F868FDF7CEFF58
:102FB000034618461037BD4680BD00BF844E002032
:102FC000789B010080B58AB002AFF860B9607A6082
:102FD0007B68BB610BF0D4FFFB68002B02D16D480E
:102FE0000BF00AFFBB68002B02D16B480BF004FF0B
:102FF0007B68002B02D169480BF0FEFE7B681B68E2
:10300000F968184613F0C5F80346002B02D0644B4C
:10301000FB61AFE07B681B6803F0F003E02B18D185
:1030200001233B7400237B745E23BB747B680133F4
:103030001B7803F07F03DBB2FB747B6802331B78E1
:103040003B757B6803331B787B7507F11003FB61CD
:1030500090E07B681A68FB6804331B685A40FB6881
:1030600008331B681340002B12D07B681B689BB28F
:103070004FF6A96293420BD0FB680C331B68002B00
:1030800003D0FB680C33BB6102E06FF003037DE00B
:10309000444B1B781946444A0B465B000B44DB004B
:1030A000134414331B78012B25D93E4B1B7819464A
:1030B0003D4A0B465B000B44DB00134408331B689E
:1030C000FA689A4217D1BB691A68364B1B781846C2
:1030D000354903465B000344DB000B4404331B68A3
:1030E0009A4208D12F4B1B781A46B968F868FFF747
:1030F000D7FE03464AE00023FB7531E0FA7D2A49FA
:1031000013465B001344DB000B4414331B78012B84
:1031100023D9FA7D244913465B001344DB000B449A
:1031200008331B68FA689A4217D1BB691968FA7D9F
:103130001D4813465B001344DB00034404331B6843
:1031400099420AD1174AFB7D1370FB7D1A46B96874
:10315000F868FFF7A5FE034618E0FB7D0133FB7519
:10316000FB7D092BCAD9BA68B969F86800F01EF866
:1031700003460BE0FB6803F126024FF40063009363
:10318000FB69B968F868FDF7E1FE03461846203789
:10319000BD4680BD78980100A89B0100589B0100A6
:1031A000B097010068E00020844E002080B58CB00C
:1031B00002AFF860B9607A60FB6826337B61FF2359
:1031C00087F8233000237B62BB681B68F9681846C8
:1031D00012F0DFFF0346002B0CD1BB681B6803F025
:1031E000F003E02B06D0BB68002B03D0BB681B6844
:1031F000002B02D16FF00F030DE1FA680121B868CE
:10320000FFF7AEFB03467B82B7F91230002B02DAE0
:103210007B8A5BB2FFE07B8A7E2B02D980480BF071
:10322000EBFD7B8A7B747A7C7E4913465B001344FA
:10323000DB000B4414331B78002B15D101237B6278
:103240007A7C784913465B001344DB000B4414334B
:1032500001221A707A7C734913465B001344DB0029
:103260000B440833FA681A607A7C6E4913465B0097
:103270001344DB000B4414331B78012B0DD07A7CF4
:10328000684913465B001344DB000B4414331B787E
:10329000012B02D864480BF0AFFD7B6A002B02D1F2
:1032A0007B68002B28D1B968F86800F067F90346FD
:1032B00087F8233097F92330002B17D17A7C5949AE
:1032C00013465B001344DB000B4414331B78012BC3
:1032D0000CD17B6A002B09D17A7C524913465B00E2
:1032E0001344DB000B44123300221A807B68002B4E
:1032F00002D197F923308EE07B68002B02D14B4836
:103300000BF07AFD7A7C474913465B001344DB00DF
:103310000B4414331B78012B17D9454A7B7C13705F
:103320007A7C13465B001344DB0008333D4A1344A8
:1033300004334FF4006200927A697968F868FDF707
:1033400005FE034687F8233063E07A7C354913464F
:103350005B001344DB000B4414331B78012B58D162
:103360000023BB617B68FB6118E0FB695A89FB693C
:103370001B899A4206D1FB691B68002B02D02D489D
:103380000BF03AFDFB691B7B03F04003002B02D0DE
:103390000123BB6105E0FB691B68FB61FB69002B36
:1033A000E3D1BB69002B07D07A684FF420710E205F
:1033B00002F03AFEF86104E07B68FB61F86902F014
:1033C00041FCFB69002B21D07A7C164913465B0037
:1033D0001344DB000B441B68002B0AD07A7C114994
:1033E00013465B001344DB000B441B68184602F0D5
:1033F000AFFB7A7C0B4913465B001344DB000B44A4
:10340000FA691A60002387F8233002E0FF2387F867
:10341000233097F9233018462837BD4680BD00BFBA
:10342000B49B0100844E0020C49B0100A89B0100B6
:1034300068E00020EC9B010080B58AB002AFF86024
:10344000B9607A603B600023FB77FB68002B02D1F8
:1034500036480BF0D1FC4FF420721C210E2002F0F4
:103460003FF9B861BB69002B02D14FF0FF3359E03F
:10347000BB695B891B2B02D82D480BF0BDFCBB69D7
:103480005B687B61BB8E184612F0CCFE03461A4681
:103490007B69DA80FB6893F82C30062B02D0254834
:1034A0000BF0AAFC7B69083306223968184615F030
:1034B000D5FC7B6912330622F96A184615F0CEFC5A
:1034C0007B690E330422B96A184615F0C7FC7B6984
:1034D00018330422396B184615F0C0FC7B690022B2
:1034E0001A70002242F001025A707B69002242F0F9
:1034F00008029A700022DA707B6906221A717B69D1
:1035000004225A7140F6060300937B68BA68B969D1
:10351000F868FDF71BFDB86902F01AFB0023BB61D8
:1035200097F91F3018462037BD4680BD78980100B6
:10353000089C01003C9C010080B588B004AFF86095
:10354000B9607A60FB6803F12601FB6803F126008D
:10355000FB68043301220392BA680292064A019280
:10356000009303467A68F868FFF766FF034618463B
:103570001037BD4680BD00BFB897010080B582B04E
:1035800000AF78603960054A39687868FFF7D4FF82
:10359000034618460837BD4680BD00BFB0970100FE
:1035A00080B58EB004AF786039608B4B9B687B62CE
:1035B0007B6A1B7803F00F03DBB29B00DBB27B84DA
:1035C0007B8C132B40F2F0807B685B89032B40F2ED
:1035D000ED807B685B681B7887F821307B685B68CF
:1035E0005B7887F8203097F82130002B00F0D580E9
:1035F000082B40F0D580794BFB61774B5B6903F07A
:10360000F003E02B00F0D980734B5B69724A1268BB
:103610001146184612F0BDFD0346002B40F0CF8046
:103620007B681B89072B40F2C380786812F054FF37
:103630000346002B03D0786802F08AFAC8E07B8C3E
:103640000E331946786813F09DF80346002B48D0D6
:103650007B681A897B8C13447B837B681B897A8BFC
:103660009A42C0F0AE807B8B4FF4207219460E2038
:1036700002F036F878617B69002B00F0A4807B694A
:103680005B891A467B8C08339A4203D2786902F030
:103690005FFA99E07B695B687A8C796A184615F065
:1036A000DDFB7B8C1946786902F008FA0346002B93
:1036B00006D04B480BF0A0FB786902F049FA83E092
:1036C0007968786902F028FB0346002B03D07869FB
:1036D00002F03EFA78E0786802F03AFA7B697B60A3
:1036E0000CE07B8C0E331946786802F0E7F903464C
:1036F000002B03D03B480BF07FFB65E07B685B68E9
:103700003B617B8C1946786813F03CF80346002B2C
:1037100045D17B685B68FB60FB691A68FB68DA600F
:103720002D4B1A69FB681A613B6900221A703B69CC
:103730005B889BB24FF6F772934207D93B695B886F
:103740009BB209339AB23B695A8006E03B695B88B9
:103750009BB208339AB23B695A80FB68FF221A7207
:10376000FB6800229A720022DA727B8C1946F86894
:1037700012F0A0FE03461A46FB685A813B6802938A
:103780000123019300230093FF230022F969786845
:1037900012F0D5FC0346FB7201E000BF00E000BF61
:1037A000786802F0D5F913E000BF02E000BF00E046
:1037B00000BF786802F0CCF90AE000BF04E000BF67
:1037C00002E000BF00E000BF786802F0C1F900BF6E
:1037D0002837BD4680BD00BF784F00208C4F0020A9
:1037E000809C0100B49C010080B58CB004AF78606F
:1037F0000B46FB701346BB701C23FB837B681B8945
:10380000FA8B9A4202D97B681B89FB83FB8B0833B6
:103810009BB24FF420721946222001F061FFB8617B
:10382000BB69002B50D0BB695B891A46FB8B083300
:103830009A4202D226480BF0DFFA7B685B687B6114
:10384000BB695B683B613B69FA781A703B69BA787F
:103850005A703B6900221A7100225A7100229A7133
:103860000022DA71FA8B08237968B86902F076FAD7
:103870007B69DB68BB6007F10803184600F02AF893
:10388000F860FB68002B1BD03B6900229A70002275
:10389000DA70BB695B891946386912F00BFE034682
:1038A0001A463B695A8007F10802FB68029301231C
:1038B000019300230093FF230021B86912F03FFC1D
:1038C000B86902F045F900E000BF2037BD4680BD71
:1038D000E89C010080B584B000AF78600BF050FB2D
:1038E000324B1B68FB6036E0FB6893F82D3003F029
:1038F0000103DBB2002B2BD0FB6893F82D309B0823
:1039000003F00103DBB2002B22D0FB6804331B68F9
:10391000002B1DD07B681A68FB6804331B685A4073
:10392000FB6808331B681340002B01D1FB6838E0AB
:10393000FB6893F82D3003F00203002B08D17B685D
:103940001A68FB680C331B689A4201D1FB6828E0B7
:10395000FB681B68FB60FB68002BC5D1144B1B6820
:10396000002B1AD0124B1B6893F82D3003F0010383
:10397000002B12D00E4B1B6893F82D3003F004037C
:10398000002B0AD00A4B1B6804331B68002B04D0A1
:103990007B681B68DBB27F2B01D1002301E0044B65
:1039A0001B6818461037BD4680BD00BF98D4002064
:1039B0009CD4002080B582B000AF78607B6893F81B
:1039C0002D3003F00103DBB2002B16D07B680433EB
:1039D0001B68002B11D00B4B5A697B6804331B68A2
:1039E0009A4208D0074B5B697968184612F0D1FB00
:1039F0000346002B01D0012300E0002318460837BE
:103A0000BD4680BD784F002080B588B000AF78609B
:103A1000396001233B610BF0B3FA7B685B68FB60A4
:103A2000FB681B781B09DBB2042B04D0786802F01A
:103A30008FF8002330E1FB681B7803F00F03DBB243
:103A40009B00DBB27B81FB685B889BB2184612F05F
:103A5000E9FB0346FB827B681B89FA8A9A4204D2FF
:103A6000FB8A1946786801F049FF7B685B897A898F
:103A70009A4207D87B681B89FA8A9A4202D87B89C6
:103A8000132B04D8786802F063F8002304E17B89E3
:103A90001946F86812F00EFD0346002B04D0786832
:103AA00002F056F80023F7E0FB681B697C4A53617B
:103AB000FB68DB687A4A1361794B5B6903F0F003BA
:103AC000E02B12D13B6893F82D3003F00103DBB2F9
:103AD000002B07D03B6804331B68002B02D03B68E7
:103AE000FB612AE00023FB6127E03868FFF762FFF3
:103AF0000346002B02D03B68FB611EE00023FB6104
:103B0000674B5B69DBB27F2B17D0664B1B68FB6191
:103B10000EE0FA693B689A4206D0F869FFF74AFF5F
:103B20000346002B08D100E000BFFB691B68FB6166
:103B3000FB69002BEDD100E000BFFB69002B11D128
:103B4000FB685B7A112B0DD17B89FA681344BB614A
:103B5000BB695B889BB2B3F5884F03D13B68FB61BF
:103B600000233B613B69002B17D04D4B1B69002B99
:103B700013D04B4B1B693968184612F00AFB0346F9
:103B8000002B05D1464B1B6903F0F003E02B04D159
:103B9000786801F0DDFF00237EE0FB69002B04D193
:103BA000786801F0D5FF002376E0FB68DB889BB2E4
:103BB0001A464FF63F731340002B0BD0786800F085
:103BC0004DFC78607B68002B01D1002364E07B68AA
:103BD0005B68FB60324AFB691360314A3B685360A3
:103BE0002F4AFB689360FB681B7803F00F03DBB27E
:103BF0009B00DBB29AB22A4B9A817B89194678687E
:103C000001F05CFFFB685B7A112B06D0112B13DCF3
:103C1000012B0CD0062B05D00EE03968786807F030
:103C20008DFE26E03968786803F044FF21E03968AA
:103C30007868FFF7B5FC1CE0194B5B69F969184619
:103C400012F0A7FA0346002B0FD1154B5B6903F066
:103C5000F003E02B09D0B7F90A301946786812F062
:103C6000C1FD0221786812F04AFA786801F070FF0D
:103C700000BF0B4B00221A60094B00225A60084B10
:103C800000229A60064B00229A81054B00221A619D
:103C9000034B00225A61002318462037BD4680BDE1
:103CA000784F002098D4002080B588B000AFF8602D
:103CB000B9607A60FB700023FB610BF061F9FB686F
:103CC0009B7B012B02D079480BF096F87B68002B88
:103CD00000F0C0801423FB821421F86812F052FD1A
:103CE0000346002B02D06FF00103DBE0FB685B684A
:103CF000BB61FB685B89132B02D86D480BF07CF825
:103D0000BB69FA781A72BB6997F82C205A7297F837
:103D10002C20FB781B0213431B021AB297F82C10BD
:103D2000FB781B020B431B121BB2DBB21BB213430B
:103D30001BB29BB21A46FB691344FB617B681A688D
:103D4000BB691A61BB691B699BB2FA691344FB61C9
:103D5000BB691B691B0CFA691344FB61FB8A9B0856
:103D60009BB2DBB243F04003DAB2BB691A70BB69A5
:103D700097F828205A7097F82820BB691B781B02F7
:103D800013431B021AB297F82810BB691B781B0259
:103D90000B431B121BB2DBB21BB213431BB29BB211
:103DA0001A46FB691344FB61FB681B89184612F035
:103DB00039FA03461A46BB695A80BB695B889BB2D5
:103DC0001A46FB691344FB61BB6900229A71002209
:103DD000DA71384B1B88184612F024FA03461A464B
:103DE000BB699A80BB699B889BB21A46FB691344E6
:103DF000FB61304B1B8801339AB22E4B1A80BB6893
:103E0000002B04D12C4B1A68BB69DA6003E0BB6855
:103E10001A68BB69DA60BB69DB689BB2FA69134454
:103E2000FB61BB69DB681B0CFA691344FB61FB692E
:103E30001A0CFB699BB21344FB61FB691B0CFA690A
:103E40001344FB61FB69DB43FB61FB699AB2BB690D
:103E50005A810FE0FB685B89132B02D86FF00103D6
:103E600020E0FB685B68BB61BB691B693B6107F1D4
:103E700010037B603B6B9B8C002B0CD0FB681A897A
:103E80003B6B9B8C9A4206D97A68396BF86800F0D4
:103E9000AFFC034606E03B6B5B697A68F968386BF8
:103EA0009847034618462037BD4680BD149D010043
:103EB000209D010058E00020509D010080B584B095
:103EC00000AF0023BB60124B1B68FB6018E0FB686F
:103ED000DB7F002B0BD0FB68DB7F013BDAB2FB689A
:103EE000DA77FB68BB60FB681B68FB6008E0FB6877
:103EF0007B60FB681B68FB60B968786800F00AF8B3
:103F0000FB68002BE3D100BF00BF1037BD4680BD6A
:103F1000744F002080B588B000AF7860396000230E
:103F2000FB833A687B689A4202D13D480AF064FFFD
:103F30003B68002B07D03B681B687A689A4202D026
:103F400038480AF059FF7B685B685B687B617B6976
:103F50009B889BB2002B27D17B685B68BB617B6928
:103F60001A687B685A60BB6958687B6808331422FA
:103F7000194614F073FF0121B86912F0D0F8B8693E
:103F800012F042FC03467B82FA8B7B8A1344B3F522
:103F9000803F02DB24480AF02FFFFA8B7B8A134410
:103FA000FB83B86901F0D4FD7B685B68BB611CE0F2
:103FB000BB695B687B61BB69FB607B691B68BB613C
:103FC000F86812F021FC03467B82FA8B7B8A13444B
:103FD000B3F5803F02DB14480AF00EFFFA8B7B8AB0
:103FE0001344FB83F86801F0B3FDBB69002BDFD1FC
:103FF0003968786800F0BAF80C4B1B88FA8B9A4243
:1040000002D90B480AF0F8FE084B1A88FB8BD31A2A
:104010009AB2064B1A80FB8B18462037BD4680BDEE
:10402000589D0100649D0100789D01005AE0002028
:10403000989D010080B58AB000AF78603960002398
:104040007B6100233B620023FB610023BB610023F3
:104050003B61284B1B687B6230E07B6A5A697B6856
:10406000DB689A420CD17B6A9A697B681B699A4229
:1040700006D17B6A9A897B689B889BB29A4214D04E
:104080003B6901333B613B6A002B04D17B6A3B6295
:10409000FB69BB6109E07B6ADA7F3B6ADB7F9A429E
:1040A00003D87B6A3B62FB69BB617B6A1B68002BA0
:1040B00001D07B6AFB617B6A1B687B627B6A002B99
:1040C000CBD13B6A002B08D0B969386AFFF722FFD1
:1040D000F8607A69FB6813447B617A693B689A42AD
:1040E00002DA3B69012BACDC7B6918462837BD46F8
:1040F00080BD00BF744F002080B584B000AF7860F1
:104100003960042001F092F8F860FB68002B10D1B0
:1041100039687868FFF78EFF02463B68934203DCFC
:10412000042001F083F8F860FB68002B01D1002324
:1041300016E020220021F86814F092FEFB680F229E
:10414000DA77094B1A68FB681A60074AFB68136044
:10415000FB68083314227968184614F07FFEFB6868
:1041600018461037BD4680BD744F002080B582B020
:1041700000AF786039600E4B1B687A689A4204D1B0
:104180007B681B680A4A136009E03B68002B02D178
:1041900008480AF031FE7B681A683B681A60796843
:1041A000042001F08BF800BF0837BD4680BD00BF7A
:1041B000744F0020BC9D010080B58CB000AFF8604A
:1041C000B9607A600023BB6201233B62BB685B6815
:1041D000FB61FB695B889BB2184612F023F803462B
:1041E0007B83FB691B7803F00F03DBB29B007B76BC
:1041F0007B7E9BB27A8B9A4202D24FF0FF3321E151
:104200007B7E9BB27A8BD31A7B83FB69DB889BB264
:10421000184612F007F80346C3F30C039BB2DB0009
:10422000FB82BB685B68FB62FB6A00221A7000229B
:104230005A7000229A700022DA70FB6AFA8A9A8019
:10424000FA8A7B8B13449AB2FB6ADA80FB6ADB88BA
:104250009BB2FA8A9A4202D94FF0FF33F2E0FB6830
:104260005B687B6268E07B6A5B683B61FB6A9B889A
:104270009AB23B699B889BB29A4235D2FB6A7A6AB2
:104280001A60BB6A002B20D0FB6A9B889AB2BB6A7B
:10429000DB889BB29A4207D3FB6ADB889AB23B6900
:1042A0009B889BB29A4202D94FF0FF33CAE0BB6AA7
:1042B000BA681A60BB6ADB889AB2FB6A9B889BB2B9
:1042C0009A423DD000233B623AE0FB6ADB889AB217
:1042D0003B699B889BB29A4202D94FF0FF33B1E011
:1042E000FB68BA685A602BE0FB6A9B889AB23B690C
:1042F0009B889BB29A4202D14FF0FF33A2E0FB6A47
:104300009B889AB23B69DB889BB29A4202D24FF0FB
:10431000FF3397E0BB6A002B09D0BB6ADB889AB2F7
:104320003B699B889BB29A4201D000233B623B6968
:104330001B687B623B69BB627B6A002B93D100E008
:1043400000BF7B6A002B25D1BB6A002B18D0BB6A4B
:10435000DB889AB2FB6A9B889BB29A4202D93B489F
:104360000AF04AFDBB6ABA681A60BB6ADB889AB277
:10437000FB6A9B889BB29A420CD000233B6209E007
:10438000FB685B68002B02D031480AF035FDFB6802
:10439000BA685A607B68002B05D1FB689B7F03F0ED
:1043A0000103002B4DD03B6A002B43D0FB685B68B8
:1043B000002B06D0FB685B685B689B889BB2002B78
:1043C00002D000233B6235E0FB6ABB62FB6A1B68DC
:1043D0007B6212E07B6A5B68FB62BB6ADB889AB235
:1043E000FB6A9B889BB29A4202D000233B6207E0A3
:1043F000FB6ABB62FB6A1B687B627B6A002BE9D1AC
:104400003B6A002B16D0FB685B68002B02D1114879
:104410000AF0F2FCFB685B685B68FA6A9A4202D1B8
:104420000C480AF0E9FCFB6A1B68002B02D00A4822
:104430000AF0E2FC3B6A002B14BF01230023DBB22D
:1044400000E0002318463037BD4680BDD89D0100EE
:10445000F89D0100309E0100409E010080B58EB0A5
:1044600000AF78607B685B68BB62BB6A1B7803F057
:104470000F03DBB29B00DBB2142B40F06D81BB6AF3
:10448000DB889BB2184611F0CDFE0346C3F30C0344
:104490009BB2DB00FB84BB6A5B889BB2184611F0C1
:1044A000C1FE0346BB84BB6A1B7803F00F03DBB27B
:1044B0009B0087F8233097F823309BB2BA8C9A423E
:1044C000C0F04C8197F823309BB2BA8CD31ABB84CE
:1044D000786812F099F903463B849A4B1B881A4678
:1044E0003B8C13440A2B10DD3B8C1946B86AFFF74E
:1044F000A1FD0346002B00F03381924B1B881A4626
:104500003B8C13440A2B00F32B818F4B1B683B63BE
:1045100015E03B6B5A69BB6ADB689A420CD13B6B76
:104520009A69BB6A1B699A4206D13B6B9A89BB6A3E
:104530009B889BB29A4206D03B6B1B683B633B6BEC
:10454000002BE6D100E000BF3B6B002B09D13B8C78
:104550001946B86AFFF7D0FD38633B6B002B1CD1BE
:1045600001E1BB6ADB889BB2184611F05BFE034693
:10457000C3F30C03002B10D13B6BDB89184611F001
:1045800051FE0346C3F30C03002B06D03B6B0833EC
:104590001422B96A184614F061FCBB6ADB889BB22E
:1045A00003F02003002B0CBF01230023DBB2FB61CF
:1045B000FB69002B0ED0FA8CBB8C13447B837A8B67
:1045C000FB8C9A42C0F0A4807B8B4FF6EB72934237
:1045D00000F29E80FA697968386BFFF7EDFD78612B
:1045E0007B69B3F1FF3F00F09580564B1A883B8CF6
:1045F00013449AB2534B1A80FB69002B0DD0FA8CEE
:10460000BB8C13447B823B6B7A8A9A833B6B9B7F88
:1046100043F00103DAB23B6B9A777B69012B75D1CA
:104620003B6B9B8B14333B823B6B5B685B681B680B
:10463000FB623B6B5B685B68BB623B6B08331422BD
:104640001946B86A14F00AFC3B8A184611F0EAFDD4
:1046500003461A46BB6A5A80BB6A00229A7100223E
:10466000DA71BB6A00229A720022DA721421B86AE7
:1046700011F020FF03461A46BB6A5A813B6B5B6808
:104680007B600DE0FB6A5B68FB601421F86A01F057
:1046900015FAF96A786801F0F5FAFB681B68FB62A5
:1046A000FB6A002BEED1284B1B683A6B9A4202D171
:1046B00000237B6310E0244B1B687B6307E07B6B6C
:1046C0001B683A6B9A4206D07B6B1B687B637B6BE3
:1046D000002BF4D100E000BF796B386BFFF746FD8B
:1046E000786812F091F803463B84164B1B883A8C8D
:1046F0009A4202D915480AF07FFB124B1A883B8C6C
:10470000D31A9AB20F4B1A807B6830E000232EE058
:1047100000BF00E000BF3B6B002B02D10C480AF049
:104720006BFB3B6B5B68002B1CD1074B1B683A6B28
:104730009A4202D007480AF05FFB0021386BFFF76E
:1047400015FD10E05AE00020744F0020649E010027
:10475000809E01008C9E010000BF04E000BF02E0CB
:1047600000BF00E000BF786801F0F2F900231846AE
:104770003837BD4680BD00BF80B582B000AF7860DD
:104780007B68002B02D105480AF036FB79680520CA
:1047900000F094FD00BF0837BD4680BD509A01006F
:1047A00080B584B000AF78607B68FB60FB68002B4D
:1047B00002D10D480AF020FBFA687B689A4202D0C9
:1047C0000A480AF019FBFB685B69002B04D0FB6800
:1047D0005B69184601F0BCF9F868FFF7CDFF00BF30
:1047E0001037BD4680BD00BFAC9E0100B89E0100E1
:1047F00080B594B002AFF860B9607A600023A7F882
:104800004630BB689B8C143B002B00DA0733DB106F
:104810007B871423FB87FB685B687B637B6B3B6355
:104820003B6B1B7803F00F03DBB29B00DBB2142B56
:1048300002D06FF005030FE1FB685B89132B08D8EA
:10484000874810F0BEFA874810F0BBFA6FF00503F6
:1048500002E13B6BDB889BB2184611F0E3FC034698
:10486000BB87BB8FC3F30C03A7F84030BB8F03F4A7
:104870000053FB62FB681B89143BA7F84230E1E060
:104880007B8FDB009BB2B7F84220934228BF1346D0
:104890007B854FF4207214210E2000F021FF7862F6
:1048A0007B6A002B00F0D5807B6A5B89132B02D8D2
:1048B0006D480AF0A1FA7B6A5B681422796B18468E
:1048C00014F0CCFA7B6A5B683B637B8DA7F84430BD
:1048D00060E0FB685A89FB8FD31AFB83FB685B8916
:1048E000FA8F9A4202D961480AF086FAFA8BB7F831
:1048F0004430934228BF1346A7F84630B7F84630F5
:10490000002B05D10023FB87FB681B68FB6041E09F
:1049100011F080FCB861BB69002B03D1786A01F00B
:1049200017F997E0B869FB685A68FB8F1344B7F82A
:104930004610B7F84620019200930346412200201A
:1049400011F0ECFE78617B69002B06D1B869FFF7A6
:1049500013FF786A01F0FCF87CE0F86801F072F966
:10496000BB69FA685A61BB69414A1A617969786A18
:1049700001F088F9B7F84420B7F84630D31AA7F801
:104980004430B7F84430002B04D00023FB87FB6889
:104990001B68FB60B7F84430002B9AD1FA8FB7F848
:1049A00046301344FB87BB689B8CA3F11302B7F816
:1049B00042309A42CCBF01230023DBB23B62B7F8FE
:1049C0004030C3F30C03BB873B6A002B02D0FB6A69
:1049D000002B03D0BB8F43F40053BB87BB8F18461B
:1049E00011F020FC03461A463B6BDA807B8D1433B2
:1049F0009BB2184611F016FC03461A463B6B5A80D0
:104A00003B6B00229A720022DA721421386B11F08B
:104A100051FD03461A463B6B5A81BB685B697A6855
:104A2000796AB8689847786A01F092F8B7F8422036
:104A30007B8DD31AA7F84230B7F840207B8F134400
:104A4000A7F84030B7F84230002B7FF419AF0023AD
:104A500002E000BF4FF0FF3318464837BD4680BD27
:104A6000C49E010038950100E09E0100009F0100F6
:104A7000A147000080B483B000AF0346FB80054B24
:104A80001A68FB88134418460C37BD465DF8047B52
:104A9000704700BFA4A7002080B483B000AF786047
:104AA000054B1B687A68D31A9BB218460C37BD4673
:104AB0005DF8047B704700BFA4A7002090B585B0C7
:104AC00000AF78603D4B1B687A689A4202D23C483E
:104AD0000AF092F93B4B1B687A689A4202D33A4833
:104AE0000AF08AF97B681B79002B02D037480AF05C
:104AF00083F97B681B88B3F5B04F02D934480AF0BC
:104B00007BF97B681B881846FFF7B4FFF8607A686A
:104B1000FB689A4224D0FB681B79002B20D1294BDB
:104B20001B68FA689A421BD02A4B1B68FA689A42A3
:104B300002D1284A7B681360FB681A887B681A8058
:104B4000FB681B88B3F5B04F0AD0FB681B8818467A
:104B5000FFF790FF04467868FFF79EFF03466380E7
:104B60007B685B881846FFF785FFB860BA687B688A
:104B70009A421FD0BB681B79002B1BD1154B1B68B9
:104B80007A689A4202D1134ABB6813607B681A881C
:104B9000BB681A807B681B88B3F5B04F0AD07B686E
:104BA0001B881846FFF766FF0446B868FFF774FFD6
:104BB0000346638000BF1437BD4690BDA4A7002004
:104BC000109F0100A8A70020289F0100449F01001A
:104BD000609F0100B0A7002080B582B000AF1D4BE0
:104BE000033323F003031A461B4B1A601A4B1B684E
:104BF0007B607B684FF4B0421A807B6800225A8049
:104C00007B6800221A714FF4B040FFF733FF034670
:104C1000124A1360114B1B6801221A710F4B1B685B
:104C20004FF4B0421A800D4B1B684FF4B0425A80CB
:104C3000094B1B680A4A13600A4812F0F8FE034643
:104C4000002B02D008480AF0D7F800BF0837BD464D
:104C500080BD00BF904F0020A4A70020A8A700207F
:104C6000B0A70020ACA700208C9F010080B586B0C3
:104C700000AF78607868FFF70FFF0346FB827B6820
:104C80001B881846FFF7F6FE38617B685B8818467C
:104C9000FFF7F0FEF8607B681B88B3F5B04F18D8BB
:104CA0007B685B88B3F5B04F13D87B685B88FA8A62
:104CB0009A4204D0FB681B88FA8A9A4209D1084BB1
:104CC0001B683A699A4206D03B695B88FA8A9A4225
:104CD00001D0002300E0012318461837BD4680BDEF
:104CE000A8A7002080B588B000AF78607B68002B53
:104CF00060D07B6803F00303002B09D02F480AF033
:104D00007BF812F0F9FEF860F86812F016FF52E036
:104D10007B68083BFB612A4B1B68FA699A4206D301
:104D20007B6803F10C02274B1B689A4209D926487D
:104D30000AF062F812F0E0FE3861386912F0FDFE08
:104D400039E0224812F08BFEFB691B79002B0CD155
:104D50001F480AF051F81D4812F095FE12F0CCFEE3
:104D60007861786912F0E9FE25E0F869FFF77EFFC7
:104D70000346002B0CD117480AF03EF8134812F0F6
:104D800082FE12F0B9FEB861B86912F0D6FE12E0E8
:104D9000FB6900221A71104B1B68FA699A4202D211
:104DA0000D4AFB691360F869FFF788FE074812F0A7
:104DB0006AFE00E000BF2037BD4680BDA89F01000D
:104DC000A4A70020A8A70020CC9F0100ACA700202A
:104DD000E89F010010A00100B0A7002080B588B0B6
:104DE00000AF78600B467B807B8803339BB223F057
:104DF0000303FB83FB8B0B2B01D80C23FB83FB8B67
:104E0000B3F5B04F03D8FA8B7B889A4201D20023C6
:104E1000C8E0664B1B687A689A4204D3644B1B68EF
:104E20007A689A4202D3634809F0E6FF5F4B1B6839
:104E30007A689A4204D35E4B1B687A689A4207D319
:104E400012F05AFEB860B86812F077FE7B68A9E0ED
:104E50007B68083BBB61B869FFF71EFE0346FB8217
:104E6000BB691A88FB8AD31A9BB2083BBB82FA8BB8
:104E7000BB8A9A4202D9504809F0BEFFFA8BBB8A1E
:104E80009A4201D900238DE0FA8BBB8A9A4201D164
:104E90007B6887E0494812F0E2FDBB691B88184631
:104EA000FFF7E8FD38613B691B79002B3BD1BB69FB
:104EB0001B88B3F5B04F02D1414809F09DFF3B6913
:104EC0001B88BB81FA8AFB8B13449BB20833FB819E
:104ED0003C4B1B683A699A4206D1FB891846FFF79A
:104EE000C9FD0346374A1360FB891846FFF7C2FD28
:104EF00038613B6900221A713B69BA891A803B69A3
:104F0000FA8A5A80BB69FA891A803B691B88B3F513
:104F1000B04F43D03B691B881846FFF7ABFD0246F4
:104F2000FB8953803AE0FB8B03F11402BB8A9A425F
:104F300034D8FA8AFB8B13449BB20833FB81BB69DC
:104F40001B88B3F5B04F02D11D4809F055FFFB890E
:104F50001846FFF78FFD38611A4B1B683A699A4271
:104F600002D2184A3B6913603B6900221A71BB697F
:104F70001A883B691A803B69FA8A5A80BB69FA89A8
:104F80001A803B691B88B3F5B04F07D03B691B887B
:104F90001846FFF76FFD0246FB895380074812F061
:104FA00072FD7B6818462037BD4680BDA4A700204F
:104FB000A8A7002044A001005CA00100ACA700202D
:104FC0007CA00100B0A7002080B588B000AF0346E8
:104FD000FB80FB88002B01D10023CEE0FB8803334C
:104FE0009BB223F00303BB83BB8B0B2B01D80C2399
:104FF000BB83BB8BB3F5B04F03D8BA8BFB889A4207
:1050000001D20023B9E05F4812F029FD5E4B1B6816
:105010001846FFF741FD0346FB83A3E0FB8B1846D0
:10502000FFF728FD78617B691B79002B40F09380A6
:105030007B691B881A46FB8BD31AA3F10802BB8B32
:105040009A42C0F088807B691B881A46FB8BD31A72
:10505000A3F10802BB8B14339A422FD3FA8BBB8B7C
:1050600013449BB208337B827B8AB3F5B04F02D1E5
:10507000464809F0C1FE7B8A1846FFF7FBFCF86042
:10508000FB6800221A717B691A88FB681A80FB682A
:10509000FA8B5A807B697A8A1A807B6901221A719D
:1050A000FB681B88B3F5B04F0BD0FB681B88184614
:1050B000FFF7E0FC02467B8A538002E07B69012215
:1050C0001A71314B1B687A699A4223D12E4B1B68A7
:1050D000BB6105E0BB691B881846FFF7CBFCB861D4
:1050E000BB691B79002B04D0294B1B68BA699A4213
:1050F000F0D1254ABB691360234B1A68244B1B6807
:105100009A4207D0204B1B681B79002B02D0214804
:1051100009F072FE1B4812F0B6FCBA8B7B6913448F
:1051200008331B4A1268934202D91B4809F064FEF7
:105130007B6903F00303002B02D0184809F05CFEE2
:105140007B6903F00303002B02D0154809F054FEDD
:105150007B69083311E0FB8B1846FFF78BFC034695
:105160001B88FB83FA8BBB8BC3F5B0439A42FFF4D9
:1051700055AF044812F087FC002318462037BD467F
:1051800080BD00BFACA70020B0A700207CA001001C
:10519000A8A7002090A00100ACA00100DCA00100A5
:1051A0000CA1010080B582B000AF0023FB8009E0B4
:1051B000FB88084A52F82330184611F0F1F9FB88B1
:1051C0000133FB80FB880C2BF2D900BF00BF0837EE
:1051D000BD4680BD98A2010080B584B000AF786064
:1051E00012F08AFCF8607B68DB681B68BB60BB68F8
:1051F000002B11D07B68DB68BA6812681A60BB6844
:1052000003F00303002B02D0074809F0F5FDF8680E
:1052100012F093FCBB6803E0F86812F08EFC0023E8
:1052200018461037BD4680BDCCA2010080B584B0C1
:1052300000AF0346FB71FB790C2B07D90A480FF02E
:10524000C0FD0A480FF0BDFD002308E0FB79084AC5
:1052500052F823301846FFF7BFFFF860FB68184686
:105260001037BD4680BD00BFF0A201003895010097
:1052700098A2010080B584B000AF786039603B68C7
:1052800003F00303002B02D00B4809F0B5FD3B6887
:10529000FB6012F031FCB8607B68DB681A68FB6861
:1052A0001A607B68DB68FA681A60B86812F045FC1F
:1052B00000BF1037BD4680BD10A3010080B582B08D
:1052C00000AF03463960FB71FB790C2B06D90B4804
:1052D0000FF077FD0A480FF074FD0CE03B68002BDF
:1052E00008D0FB79074A52F8233039681846FFF78F
:1052F000C1FF00E000BF0837BD4680BD30A30100FC
:105300003895010098A2010080B586B000AFF86022
:10531000B9607A603B6009F033FEFB68002B07D16F
:1053200054480FF04EFD54480FF04BFD00239DE014
:105330007B6A002B07D151480FF043FD4E480FF018
:1053400040FD002392E0BB68002B01D14C4BBB60B9
:105350007B68002B01D14A4B7B603B68002B01D15D
:10536000474B3B60FB6800225A60FB6800229A6052
:10537000FB680022DA60FB68424A5A61FB6800223F
:105380009A84FB68002283F82D20FB6820330422D6
:105390000021184613F064FDFB683A6ADA613A4B63
:1053A0001A78FB6883F83020FB68BA6A1A613B6898
:1053B0007A68B968F86800F0ADF87B6AF8689847D1
:1053C0000346002B01D0002350E0FB6893F83030F7
:1053D000FF2B03D1FB68002283F8302000233B61C0
:1053E0002A4B1B687B6123E07A69FB689A4202D1F1
:1053F000274809F001FD3B6901333B613B69FF2B05
:1054000002DD244809F0F8FC7B6993F83020FB6842
:1054100093F830309A4208D1FB6893F8303001336A
:10542000DAB2FB6883F8302005E07B691B687B619A
:105430007B69002BD8D17B69002BC6D1FB6893F820
:105440003030FE2B03D1104B00221A7006E0FB68AF
:1054500093F830300133DAB20B4B1A700B4B1A68E9
:10546000FB681A60094AFB681360FB681846183726
:10547000BD4680BD4CA301003895010068A3010022
:10548000509D0100AD66010069E0002098D4002025
:105490008CA30100A0A3010080B586B000AFF86026
:1054A000B9607A60BB68002B02D1194809F0A4FCEE
:1054B0007B68002B02D1164809F09EFCBB681A6875
:1054C000FB6804331B689A421CD0BB681B687B6175
:1054D000FB6804331A687B681A6007F114031946E5
:1054E000786811F094F8BB68002B02D0BB681B6889
:1054F00000E00023FA6853600121F86800F092F898
:10550000012300E0002318461837BD4680BD00BFC8
:10551000CCBF010080B588B000AFF860B9607A6098
:105520003B600023FB610023BB6109F029FDBB68E0
:10553000002B01D11C4BBB607B68002B01D11A4BA7
:105540007B603B68002B01D1174B3B60BB68002B95
:1055500003D0BB681B68002B01D1012300E00023AE
:105560007B617B69002B06D007F110031A46B968EE
:10557000F868FFF791FFFA697968F86811F058F850
:10558000BA693968F86811F072F87B69002B06D1A6
:1055900007F110031A46B968F868FFF77DFF00BFEE
:1055A0002037BD4680BD00BF509D010080B582B050
:1055B00000AF786009F0E4FC034A7B68136000BF29
:1055C0000837BD4680BD00BF9CD4002080B582B0A6
:1055D00000AF786009F0D4FC7B68002B06D10F483F
:1055E0000FF0EFFB0E480FF0ECFB13E07B6893F835
:1055F0002D3003F00103002B0CD17B6893F82D3084
:1056000043F00103DAB27B6883F82D200321786828
:1056100000F008F80837BD4680BD00BFD0A30100E8
:105620003895010080B582B000AF78600B46FB7002
:105630007B68002B02D1164809F0DEFB7B6893F8EB
:105640002D3003F00403002B1ED07B6893F82D301F
:1056500003F00103002B17D0FB7803F00103002BAC
:1056600013D07B6804331B68002B0ED07B6893F843
:105670002D3003F00803002B07D07B680433194654
:105680007868FDF77BFF00E000BF0837BD4680BDAE
:10569000ECA3010080B584B000AF0346FB7109F0B4
:1056A0006FFCFB79002B13D00C4B1B68FB600CE0EC
:1056B000FB6893F830300133DBB2FA799A4201D1BA
:1056C000FB6806E0FB681B68FB60FB68002BEFD102
:1056D000002318461037BD4680BD00BF98D4002077
:1056E00080B58CB002AF0346FB710B46BB801346FE
:1056F0007B80FB797B847B88B3F5207F77D0B3F503
:10570000207F00F3BC80B3F5C17F10D0B3F5C17F1B
:1057100000F3B580012B02D0412B40F0B0807A8895
:10572000BB881946002000F0BDF87862ADE0002388
:105730007B620023FB61BB887B830C20FFF776FD37
:1057400038613B69002B07D17B6A002B02D0786A55
:1057500000F0FEF9002399E07B8C03339BB223F029
:1057600003039BB2C3F5BD6304339BB27A8B9342B0
:1057700028BF1346FB817B8C10333A6913440333F3
:1057800023F003031846F9897A8B002301937B8861
:1057900000930B460146386910F096FF3B695B6841
:1057A00003F00303002B02D03A4809F025FB7B8C61
:1057B000033323F0030340F2EC52934202D1364804
:1057C00009F01AFB7B6A002B02D13B697B6202E085
:1057D000FB693A691A603B69FB617A8BFB89D31AD2
:1057E0007B8300237B847B8B002BA6D14DE07B8CBD
:1057F00003339BB223F003039AB2BB8803339BB2FB
:1058000023F003039BB213443B833B8B1033FB8297
:105810003A8BBB88033323F003039A4206D3FA8AF8
:10582000BB88033323F003039A4201D200232DE007
:10583000FB8A1846FFF7C8FB78627B6A002B01D110
:10584000002323E07B8C10337A6A1344033323F064
:1058500003031846B988BA88002301937B88009314
:105860000B460146786A10F02FFF7B6A5B6803F0F5
:105870000303002B08D0094809F0BEFA04E00848E9
:1058800009F0BAFA002301E000BF7B6A1846283706
:10589000BD4680BD10A4010040A4010074A4010015
:1058A000A0A4010080B586B002AF78600B467B8073
:1058B00013463B803B88412B05D03B88012B02D00F
:1058C0000D4809F099FA0B20FFF7B0FCF860FB686F
:1058D000002B01D100230BE079887A880023019303
:1058E0003B8800930B467968F86810F0EDFEFB6882
:1058F00018461037BD4680BDBCA4010080B586B0F7
:1059000000AF78600B467B807B68002B02D1374864
:1059100009F072FA7B681B897A889A4262D27B68A6
:105920001A897B88D31A3B827B887B827B687B6168
:1059300014E07B695B897A8AD31A7B827B691A8936
:105940003B8AD31A9AB27B691A817B691B687B6197
:105950007B69002B02D1264809F04EFA7B695B89EE
:105960007A8A9A42E5D87B691B7B03F00F03002BF0
:1059700024D17B695B897A8A9A421FD07B695B7BE1
:1059800003F00203002B19D17B695A687B69D31A93
:105990009AB27B8A13449BB219467869FFF71EFAC4
:1059A000F860FB68002B02D1124809F025FAFA686A
:1059B0007B699A4202D0104809F01EFA7B697A8A04
:1059C0005A817B695A897B691A817B691B68002B24
:1059D00004D07B691B68184600F0BAF87B69002286
:1059E0001A6000E000BF1837BD4680BDD0A401009A
:1059F000E8A4010000A501001CA5010080B586B047
:105A000000AFF860B9601346FB71FB68002B02D150
:105A1000294809F0F1F9FB68002B03D0BB68B3F506
:105A2000803F01D3012343E0BB68002B01D1002359
:105A30003EE0BB687B82FB681A897B8A13449BB279
:105A40007A8A9A4201D9012332E0FB681B7B3B82B0
:105A50003B8A03F08003002B0CD0FB685A68BB68BC
:105A60005B4213447B61FB6810337A699A420DD222
:105A700001231DE0FB79002B06D0FB685A68BB6848
:105A80005B4213447B6101E0012311E0FB687A690A
:105A90005A60FB685A897B8A13449AB2FB685A8120
:105AA000FB681A897B8A13449AB2FB681A81002327
:105AB00018461837BD4680BD509A010080B584B0A5
:105AC00000AF786039607B68002B02D11D4809F077
:105AD00093F97B68002B03D03B68B3F5803F01D37B
